:100000000C9434000C9451000C9451000C94510049
:100010000C9451000C9451000C9451000C9451001C
:100020000C9451000C9451000C9451000C9451000C
:100030000C9451000C9451000C9451000C945100FC
:100040000C9451000C9451000C94AE020C9451008D
:100050000C9462020C9451000C9451000C945100C9
:100060000C9451000C94510011241FBECFEFD8E026
:10007000DEBFCDBF11E0A0E0B1E0E8EBF5E002C0EB
:1000800005900D92AC36B107D9F721E0ACE6B1E0AE
:1000900001C01D92A33BB207E1F70E94D1010C946D
:1000A000DA020C9400001092A20183EA91E090938E
:1000B0009D0180939C0110926C0110926D01089536
:1000C000E0916D018D3009F447C0EF30F0F590916B
:1000D0006C01803269F12091A201211109C023EA4B
:1000E00031E030939D0120939C0121E02093A201F7
:1000F0002E2F30E09923A1F09091A201933070F45B
:10010000A92FB0E0AA0FBB1FA456BE4FA9014D55A1
:100110005E4F4D935C939F5F9093A20110926C0190
:10012000D901AD55BE4F8C93EF5FE0936D010DC0CB
:1001300091110BC0AE2FB0E0AD55BE4F1C92EF5FDA
:10014000E0936D0181E080936C01E0916D01F0E03E
:10015000ED55FE4F10820895F0E0ED55FE4F1082F0
:100160008091A201882321F06CE971E00E94630173
:100170001092A20110926C0110926D010895AC01D1
:1001800020E0E22FF0E0DA01AE0FBF1F9C91E60FF6
:10019000F71F849198130CC0911105C0E49181E080
:1001A000EE2349F007C0E491EE2321F02F5FE9CF61
:1001B0009923A1F380E00895FC0140E0242F30E072
:1001C000DF01A20FB31F9C91DB01A20FB31F2C9183
:1001D000921306C0992311F04F5FF0CF81E008958C
:1001E000911102C081E0211180E00895FC019F017E
:1001F0002F5F3F4F8081803311F4F901F8CF80E009
:100200009191992361F08053890F90819923C1F3D3
:10021000982F990F892F880F880F890FF1CF089594
:10022000FC019F012F5F3F4F8081803311F4F90162
:10023000F8CF80E090E03AE02191222369F0C09766
:10024000820F911D20812223B9F3AC01349FC0019C
:10025000359F900D1124F0CF0895259A2D988AB1DD
:1002600088678AB98BB1877A8BB984B1836084B986
:1002700085B18C7F85B908950E948E02882321F074
:100280000E9491020C94600008958BB18F7A8BB913
:100290005B98089585B18C7F85B95D9808958BB181
:1002A00080658BB9089585B1836085B908955C9A9E
:1002B0005E980895289A299808955C985E9A089502
:1002C0002898299A0895CF93DF93EB0161E071E0BC
:1002D000888199810E94DC00811151C067E071E042
:1002E000888199810E94DC0081114EC06DE071E02F
:1002F000888199810E94DC0081114BC062E171E02C
:10030000888199810E94DC00811111C066E171E051
:10031000888199810E94DC00811111C06BE171E03C
:10032000888199810E94DC00811118C025C08EE26D
:1003300091E00E944802DF91CF910C945D01809181
:100340000001875E893108F48AEF80930001809173
:1003500000018093B40080E291E01FC08091000111
:10036000895109F489E18093000180910001809313
:10037000B40087E291E011C087E391E00EC00E94D3
:1003800045018FE391E009C00E944A0187E491E0B2
:1003900004C00E9457018FE491E0DF91CF910C944B
:1003A00048020E942D010E94E9010E94FA0187E69D
:1003B00090E00E940602789489E591E00E9448024C
:1003C0000E943C018FE99FE00197F1F700C0000017
:1003D000F7CFE0EBF0E080818062808380818360F2
:1003E0008083E1EBF0E08081876080838AEF8093F7
:1003F000B400089584B5806284BD84B5836084BDF3
:1004000085B5876085BD8AEF88BD0895F89480938F
:10041000C4009093C500E2ECF0E0808186608083A8
:10042000E1ECF0E08081886D8083789408951092EB
:100430009B0110929A01109299010895909199014F
:100440009431E1F39091C00095FF07C0909199011C
:10045000911103C08093C600089590919901943141
:10046000B0F4909199019F5F90939901E0919A0166
:10047000F0E0EE57FE4F808380919A018F5F80936A
:100480009A0180919A01843111F410929A01089591
:10049000CF93DF93EC018991882319F00E941E020B
:1004A000FACFDF91CF910895CF93DF93EC01FE0156
:1004B0008491882321F00E941E022196F8CFDF91BB
:1004C000CF9108951F920F920FB60F9211248F9320
:1004D000EF93FF93809199018823C1F0E0919B01F4
:1004E000F0E0EE57FE4F80818093C6008091990125
:1004F00081508093990180919B018F5F80939B0134
:1005000080919B01843111F410929B01FF91EF9136
:100510008F910F900FBE0F901F90189580919601AC
:100520000895809196018823B9F0E0919801F0E058
:10053000E259FE4F808190919601915090939601DF
:10054000909198019F5F90939801909198019431B8
:1005500021F410929801089580E008951F920F925F
:100560000FB60F9211248F93EF93FF938091960112
:100570008431C0F4E0919701F0E08091C600E25927
:10058000FE4F8083809197018F5F809397018091C8
:1005900096018F5F8093960180919701843111F4C9
:1005A00010929701FF91EF918F910F900FBE0F90D6
:0805B0001F901895F894FFCF8D
:1005B800FA53746F70310053746F703200466F7263
:1005C8007700526576004661737400536C6F77004C
:1005D800466173740D0A00536C6F770D0A005265FB
:1005E800766572730D0A004572726F720D0A0053B8
:1005F800746F70310D0A0053746F70320D0A004623
:100608006F72776172640D0A0048656C6C6F2074B4
:0C0618006F2048432D3036210D0A0000F1
:00000001FF
